:100000000C9448000C9465000C9465000C946500F9
:100010000C9465000C9465000C9465000C946500CC
:100020000C94D3000C9465000C9465000C9465004E
:100030000C9465000C9465000C9465000C946500AC
:100040000C9465000C9465000C9465000C9465009C
:100050000C9465000C9465000C9465000C9465008C
:100060000C9430010C9465000C9465000C946500B0
:100070000C9465000C9405010C9465000C946500CB
:100080000C9465000C9465000C943E010C94650082
:1000900011241FBECFEFCDBFDFE7DEBF10E6A0E02B
:1000A000B0E6E0E2F5E002C005900D92A035B107A0
:1000B000D9F720E6A0E5B0E601C01D92A436B2074C
:1000C000E1F70E94FF010C948E020C940000089549
:1000D00008950895CF93DF9380E094E021E0FC0140
:1000E0002083C0E4D4E02883A0E6B4E01C9240EA78
:1000F00054E0FA011082FC0124831C8214961C92A5
:100100001497FA011482FC01108A118A128A138A48
:10011000148A158A168A178A188A198A1A8A1B8AD3
:100120001C8A1D8A1E8A1F8A50961C9250975196CF
:100130001C92519752961C92529753961C92539729
:1001400054961C92549755961C92559756961C920D
:10015000569757961C92FA01108A118A128A138AAE
:10016000148A158A168A178AE0EEF5E01182108249
:1001700015821782108611861682128287E690E019
:10018000809354609093556088E690E0809352602D
:100190009093536089E690E0809350609093516013
:1001A000DF91CF9108951F920F920FB60F921124F5
:1001B0002F933F934F935F936F937F938F939F936F
:1001C000AF93BF93EF93FF93199B05C0E0915460E9
:1001D000F09155600995189B05C0E0915260F0912F
:1001E000536009958FEF83B9FF91EF91BF91AF9164
:1001F0009F918F917F916F915F914F913F912F913F
:100200000F900FBE0F901F9018951F920F920FB670
:100210000F9211242F933F934F935F936F937F938C
:100220008F939F93AF93BF93EF93FF93589B05C01A
:10023000E0915060F091516009958FEF8BB9FF917B
:10024000EF91BF91AF919F918F917F916F915F914E
:100250004F913F912F910F900FBE0F901F901895C7
:100260001F920F920FB60F9211248F938FEF8FB9B9
:100270008F910F900FBE0F901F9018951F920F92A5
:100280000FB60F9211248F938FEF87BB8F910F9032
:100290000FBE0F901F90189540E068ED80E191E04F
:1002A0000E946101E0E1F1E01282138280E0089592
:1002B0000E946A000E9465010E94C7010E944C01D1
:1002C0000895FC0164BF4083089540E068ED80E636
:1002D00090E00E94610140E068ED81E690E00E94BC
:1002E000610140E068ED85E690E00E94610140E038
:1002F00068ED88E790E00E9461014CE068ED88E6D7
:1003000090E00E94610140E068ED89E690E00E9483
:10031000610140E068ED80E790E00E94610140E00B
:1003200068ED8CE790E00E94610140E068ED82E6B4
:1003300090E00E94610140E068ED83E690E00E9459
:10034000610140E068ED84E690E00E94610140E0D8
:1003500068ED80E890E00E946101E0E6F0E08581D0
:1003600081FFFDCF0895009741F0E7EEF3E031976C
:10037000F1F700C000000197C1F7089580910408CB
:1003800085FB882780F90895089508950895E0E091
:10039000F8E083E896E080879187158280EC868379
:1003A00083E08783138614861686158684EC91E095
:1003B00080935A6090935B6085EC91E080935860E5
:1003C0009093596086EC91E080935C6090935D60BF
:1003D000109256601092576080E090E680936060C3
:1003E000909361600895CF93C82F0E94BE01882327
:1003F000E1F3C093020880E090E0CF9108950E945D
:1004000058018EE090E60E9422028CE290E60E9463
:1004100022028AE090E00E941B0207E414E0C1E09F
:1004200083E490E60E942202F801C08388EE93E004
:100430000E94B301F5CF60916060709161600E948D
:10044000520208950F931F93CF93DF93E091606062
:10045000F0916160238121FF1BC08C01D0E0C0E0DE
:10046000F80181918F016091606070916160DB01A2
:100470001896ED91FC911997882331F00995892BF5
:1004800079F3DFEFCFEFECCF8AE00995892B19F0F4
:100490008FEF9FEF02C08D2F9C2FDF91CF911F9187
:1004A0000F9108950F931F93CF93DF93FB01238147
:1004B00021FD03C08FEF9FEF2CC022FF16C04681A5
:1004C0005781248135814217530744F4A081B181BB
:1004D0009D012F5F3F4F208331838C93268137818D
:1004E0002F5F3F4F2683378314C08B01EC01FB0144
:1004F0000084F185E02D0995892BE1F6D801169647
:100500008D919C911797019616968D939C931797B2
:10051000CE01DF91CF911F910F910895F894FFCFF5
:100520000000000200000000F301000000006874F9
:100530007470733A2F2F6769746875622E636F6DDC
:100540002F6B69752F6E616B61626F006E616B61FD
:10055000626F2D61767236346464333220524556B0
:1005600020410048656C6C6F20576F726C642100ED
:02000004008278
:090000000000000000D808000017
:00000001FF
