:100000000C944A000C9467000C9467000C946700F1
:100010000C9467000C9467000C9467000C94E20049
:100020000C9467000C9467000C9467000C946700B4
:100030000C9467000C9467000C9467000C946700A4
:100040000C9467000C9467000C9467000C94670094
:100050000C9467000C943F010C9467000C946700AB
:100060000C9467000C9467000C9467000C941401C6
:100070000C9467000C9467000C9467000C94670064
:100080000C944D010C9467000C9467000C9467006D
:100090000C94670011241FBECFEFCDBFDFE7DEBF9A
:1000A00018E6A0E0B8E6E4E2F5E002C005900D92A3
:1000B000A035B107D9F728E6A0E5B8E601C01D9242
:1000C000A436B207E1F70E9401020C9490020C944E
:1000D000000040E068ED80E191E00E946401E0E111
:1000E000F1E01282138280E0089508950895089542
:1000F000CF93DF9380E094E021E0FC012083C0E413
:10010000D4E02883A0E6B4E01C9240EA54E0FA016F
:100110001082FC0124831C8214961C921497FA010D
:100120001482FC01108A118A128A138A148A158A91
:10013000168A178A188A198A1A8A1B8A1C8A1D8AA3
:100140001E8A1F8A50961C92509751961C92519766
:1001500052961C92529753961C92539754961C9207
:10016000549755961C92559756961C9256975796AB
:100170001C92FA01108A118A128A138A148A158A2B
:10018000168A178AE0EEF5E0128611821082158237
:100190001782108616821282138285E790E0809380
:1001A00054689093556886E790E0809352689093E6
:1001B000536887E790E08093506890935168DF918F
:1001C000CF9108951F920F920FB60F9211242F9383
:1001D0003F934F935F936F937F938F939F93AF93CF
:1001E000BF93EF93FF93199B05C0E0915468F09182
:1001F00055680995189B05C0E0915268F0915368C5
:1002000009958FEF83B9FF91EF91BF91AF919F91C6
:100210008F917F916F915F914F913F912F910F90AF
:100220000FBE0F901F9018951F920F920FB60F924E
:1002300011242F933F934F935F936F937F938F93EB
:100240009F93AF93BF93EF93FF93589B05C0E091AB
:100250005068F091516809958FEF8BB9FF91EF913C
:10026000BF91AF919F918F917F916F915F914F91CE
:100270003F912F910F900FBE0F901F9018951F92D6
:100280000F920FB60F9211248F938FEF8FB98F912A
:100290000F900FBE0F901F9018951F920F920FB6E0
:1002A0000F9211248F938FEF87BB8F910F900FBE0A
:1002B0000F901F9018950E9478000E9468010E947C
:1002C000C9010E9469000895FC0164BF408308953C
:1002D00040E068ED80E690E00E94640141E168ED55
:1002E00081E690E00E94640140E068ED85E690E0E0
:1002F0000E94640140E068ED88E790E00E9464019C
:1003000040E068ED88E690E00E94640140E068ED1E
:1003100089E690E00E94640140E068ED8CE790E09F
:100320000E94640140E068ED82E690E00E94640172
:1003300040E068ED83E690E00E94640140E068EDF3
:1003400084E690E00E94640140E068ED80E890E07F
:100350000E94640144E068ED86E690E00E9464013A
:10036000E0E6F0E0858181FFFDCF0895009739F048
:10037000E1E4F3E03197F1F700000197C9F7089540
:100380008091040885FB882780F9089508950895D1
:100390000895E0E0F8E08DE695E08087918715828A
:1003A00080EC868383E08783138614861686158601
:1003B00086EC91E080935A6890935B6887EC91E0BB
:1003C000809358689093596888EC91E080935C68BA
:1003D00090935D68109256681092576880E098E696
:1003E00080936068909361680895CF93C82F0E94AE
:1003F000C0018823E1F3C093020880E090E0CF9130
:1004000008950E945B018EE098E60E9424028CE22F
:1004100098E60E9424028AE090E00E941D0207E410
:1004200014E0C1E083E498E60E942402F801C0834E
:1004300088EE93E00E94B601F5CF609160687091FC
:1004400061680E94540208950F931F93CF93DF9326
:10045000E0916068F0916168238121FF1BC08C01ED
:10046000D0E0C0E0F80181918F01609160687091E7
:100470006168DB011896ED91FC911997882331F0A2
:100480000995892B79F3DFEFCFEFECCF8AE009955F
:10049000892B19F08FEF9FEF02C08D2F9C2FDF91DA
:1004A000CF911F910F9108950F931F93CF93DF93D7
:1004B000FB01238121FD03C08FEF9FEF2CC022FFA2
:1004C00016C046815781248135814217530744F471
:1004D000A081B1819D012F5F3F4F208331838C9399
:1004E000268137812F5F3F4F2683378314C08B01CE
:1004F000EC01FB010084F185E02D0995892BE1F6E3
:10050000D80116968D919C911797019616968D930A
:100510009C931797CE01DF91CF911F910F91089572
:04052000F894FFCF7D
:100524000000000200000000F501000000006874F3
:100534007470733A2F2F6769746875622E636F6DD8
:100544002F6B69752F6E616B61626F006E616B61F9
:10055400626F2D61767236346561333220524556AE
:1005640020410048656C6C6F20576F726C642100E9
:02000004008278
:090000000000000000D807000018
:00000001FF
