:100000000C9458000C9475000C9475000C947500B9
:100010000C9475000C9475000C9475000C9475008C
:100020000C944D010C9475000C9475000C947500A3
:100030000C9475000C9475000C9475000C9475006C
:100040000C9475000C9475000C9475000C9475005C
:100050000C9475000C9475000C9475000C9475004C
:100060000C94AA010C9475000C9475000C94750006
:100070000C9475000C9475000C947F010C94750021
:100080000C9475000C9475000C9475000C94B801D8
:100090000C9475000C9475000C9475000C9475000C
:1000A0000C9475000C9475000C9475000C947500FC
:1000B00011241FBECFEFCDBFDFE7DEBF10E6A0E00B
:1000C000B0E6E6E4F5E002C005900D92A035B10778
:1000D000D9F720E6A0E5B0E601C01D92A436B2072C
:1000E000E1F70E9412020C94A1020C9400000E94FD
:1000F000E2000E948C000E94DA010E9480000895B4
:1001000040E068ED80E191E00E94DA00E0E1F1E09A
:100110001282138280E0089540E068ED80E690E06E
:100120000E94DA0040E068ED81E690E00E94DA008B
:1001300040E068ED85E690E00E94DA0040E068ED7E
:1001400088E790E00E94DA004CE068ED88E690E0F5
:100150000E94DA0040E068ED89E690E00E94DA0053
:1001600040E068ED80E790E00E94DA0040E068ED52
:100170008CE790E00E94DA0040E068ED82E690E0D3
:100180000E94DA0040E068ED83E690E00E94DA0029
:1001900040E068ED84E690E00E94DA0040E068ED1F
:1001A00080E890E00E94DA00E0E6F0E0858181FFDF
:1001B000FDCF08951BBEFC0164BF408308950895E0
:1001C00008950895CF93DF9380E094E021E0FC014F
:1001D0002083C0E4D4E02883A0E6B4E01C9240EA87
:1001E00054E0FA011082FC0124831C8214961C92B4
:1001F0001497FA011482FC01108A118A128A138A58
:10020000148A158A168A178A188A198A1A8A1B8AE2
:100210001C8A1D8A1E8A1F8A50961C9250975196DE
:100220001C92519752961C92529753961C92539738
:1002300054961C92549755961C92559756961C921C
:10024000569757961C92FA01108A118A128A138ABD
:10025000148A158A168A178AE0EEF5E01186118253
:1002600010821482168217821086158212821286DC
:100270008FED90E0809354609093556080EE90E015
:10028000809352609093536081EE90E08093506031
:1002900090935160DF91CF9108951F920F920FB606
:1002A0000F9211242F933F934F935F936F937F93FC
:1002B0008F939F93AF93BF93EF93FF93199B05C0C9
:1002C000E0915460F09155600995189B05C0E0914C
:1002D0005260F091536009958FEF83B9FF91EF91D0
:1002E000BF91AF919F918F917F916F915F914F914E
:1002F0003F912F910F900FBE0F901F9018951F9256
:100300000F920FB60F9211242F933F934F935F9349
:100310006F937F938F939F93AF93BF93EF93FF93CD
:10032000589B05C0E0915060F091516009958FEFA6
:100330008BB9FF91EF91BF91AF919F918F917F9179
:100340006F915F914F913F912F910F900FBE0F9042
:100350001F9018951F920F920FB60F9211248F9332
:100360008FEF8FB98F910F900FBE0F901F90189540
:100370001F920F920FB60F9211248F938FEF87BBAE
:100380008F910F900FBE0F901F901895009741F01E
:10039000E7EEF3E03197F1F700C000000197C1F7F5
:1003A00008958091040885FB882780F908950895B1
:1003B00008950895E0E0F8E083E896E0808791876B
:1003C000158280EC868383E08783138614861686E5
:1003D000158687ED91E080935A6090935B6088ED7D
:1003E00091E0809358609093596089ED91E08093FB
:1003F0005C6090935D60109256601092576080E050
:1004000090E680936060909361600895CF93C82FC9
:100410000E94D1018823E1F3C093020880E090E0BC
:10042000CF9108950E9477008EE090E60E943502F9
:100430008CE290E60E9435028AE090E00E942E0253
:1004400007E414E0C1E083E490E60E943502F8017D
:10045000C08388EE93E00E94C601F5CF6091606092
:10046000709161600E94650208950F931F93CF936E
:10047000DF93E0916060F0916160238121FF1BC0F8
:100480008C01D0E0C0E0F80181918F016091606043
:1004900070916160DB011896ED91FC9119978823AA
:1004A00031F00995892B79F3DFEFCFEFECCF8AE0BC
:1004B0000995892B19F08FEF9FEF02C08D2F9C2F8C
:1004C000DF91CF911F910F9108950F931F93CF93B9
:1004D000DF93FB01238121FD03C08FEF9FEF2CC031
:1004E00022FF16C046815781248135814217530768
:1004F00044F4A081B1819D012F5F3F4F2083318360
:100500008C93268137812F5F3F4F2683378314C01A
:100510008B01EC01FB010084F185E02D0995892B0D
:10052000E1F6D80116968D919C9117970196169633
:100530008D939C931797CE01DF91CF911F910F91CF
:060540000895F894FFCFBE
:1005460000000002000000000602000000006874BF
:100556007470733A2F2F6769746875622E636F6DB6
:100566002F6B69752F6E616B61626F006E616B61D7
:10057600626F2D617672363464623332205245568C
:1005860020410048656C6C6F20576F726C642100C7
:02000004008278
:090000000000000000C808000027
:00000001FF
